:100000000010002089030000B5030000B5030000C4
:10001000B5030000B5030000B5030000B503000000
:10002000B5030000B5030000B5030000B5030000F0
:10003000B5030000B4030000B5030000D1100000B8
:10004000B5030000B5030000B5030000B5030000D0
:10005000B5030000B5030000B5030000B5030000C0
:10006000B5030000B5030000B5030000B5030000B0
:10007000B5030000B5030000B5030000B5030000A0
:10008000B5030000B5030000B503000010B5064C31
:100090002378002B07D1054B002B02D0044800E049
:1000A00000BF0123237010BD740000200000000079
:1000B00090150000044B10B5002B03D003490448F1
:1000C00000E000BF10BDC046000000007800002026
:1000D00090150000164B002B00D1144B9D4640227A
:1000E00092029A1A924600218B460F461348144AF0
:1000F000121A01F0FDF80F4B002B00D098470E4B61
:10010000002B00D098470020002104000D000D486E
:10011000002802D00C4800E000BF01F0C5F8200024
:10012000290000F0F7FF01F0A9F8C0460000080020
:1001300000100020000000000000000074000020FB
:1001400094000020000000000000000080B582B094
:1001500000AF02003960FB1D1A70FB1D1B78002BDD
:100160001FD0FB1D1B78012B19D0FB1D1B78022B08
:1001700013D0FB1D1B78032B0DD0FB1D1B78042B0C
:1001800007D0FB1D1B78052B01D13F230AE000237C
:1001900008E0134B06E0134B04E0134B02E0134B53
:1001A00000E0134B3A6813410122134006D1F723B4
:1001B0009A00104B1100180000F0A4F901223B68CE
:1001C0009A4010000C49FB1D1A781300DB009B18A5
:1001D0009B00CB1814331860C046BD4602B080BDEA
:1001E000F0FF0000FF010000FFFF0000F8790000B1
:1001F0007FF700001C1300000060004080B582B053
:1002000000AF02003960FB1D1A70FB1D1B78002B2C
:100210001FD0FB1D1B78012B19D0FB1D1B78022B57
:1002200013D0FB1D1B78032B0DD0FB1D1B78042B5B
:1002300007D0FB1D1B78052B01D13F230AE00023CB
:1002400008E0134B06E0134B04E0134B02E0134BA2
:1002500000E0134B3A6813410122134005D1114AC3
:10026000114B1100180000F04DF901223B689A4033
:1002700010000E49FB1D1A781300DB009B189B0031
:10028000CB1810331860C046BD4602B080BDC046D2
:10029000F0FF0000FF010000FFFF0000F879000000
:1002A0007FF700000B0400001C13000000600040FA
:1002B00080B582B000AF134B0121180000F022FB83
:1002C000114B0121180000F01DFB00237B6010E0A2
:1002D0000E4B7A68D200D05C0C4A7B68DB00D318E6
:1002E000043319680023042200F076FD7B68013393
:1002F0007B607B68012BEBDD00231800BD4602B05C
:1003000080BDC046408104000072040094130000C8
:1003100080B584B000AF78600023FB600123BB6030
:1003200028E07B68BA681A40FB68DA401300012BAA
:100330000DD1144BFA68D200D05C124AFB68DB0086
:10034000D31804331B681900FFF758FF0CE00D4B5E
:10035000FA68D200D05C0B4AFB68DB00D318043388
:100360001B681900FFF7F2FEFB680133FB60BB68F6
:100370005B00BB60FB68012BD3DD00231800BD468A
:1003800004B080BD94130000064880470649074A20
:10039000074B9B1A03DD043BC858D050FBDCFFF72A
:1003A00099FE0000BD0400009C1500000000002024
:1003B00074000020FEE7C04680B582B000AF00F0B8
:1003C00017F803007B60084B5B680F2213407A68C4
:1003D000DA4013007B60054B7A681A607B6818006E
:1003E000BD4602B080BDC04600800C400800002021
:1003F00080B582B000AF294BDA6AF0239B0113402D
:100400008022520193420CD080229201934204D068
:1004100080221201934208D00BE0214B1B687B60C5
:1004200036E080231B027B6032E01E4B1B687B6042
:100430002EE01A4BDA68E023DB00134080229200A2
:10044000934218D080229200934206D8002B18D0F5
:1004500080225200934211D016E0C02292009342B3
:1004600006D08022D20093420ED10F4B7B600EE06B
:100470000E4B7B600BE00E4B7B6008E00D4B7B600E
:1004800005E00D4B7B6002E000237B60C046C04668
:100490007B681800BD4602B080BDC04600800C409D
:1004A0000400002000000020406F4001809FD50024
:1004B000C0D8A70040B56400804F120080B500AFDF
:1004C000024B034A9A60C046BD4680BD00ED00E085
:1004D0000000000080B500AF80231B021800BD465D
:1004E00080BD80B500AFFA239B001800BD4680BDDB
:1004F00080B500AF024B1B681800BD4680BDC046EA
:100500000400002080B582B000AF78603960FEE75B
:1005100080B586B000AFF860B9607A60FB681B6890
:100520007B610122BB689A401300DB431A007B69A0
:100530001A407B6801211940BB6899400B001A439F
:10054000FB681A60C046BD4606B080BD80B582B06B
:1005500000AF78607B681F2B06D996235A00064BA4
:1005600011001800FFF7CEFF01227B689A401300AC
:100570001800BD4602B080BDA413000080B500AFD6
:10058000034BDB6C1B0EDBB21800BD4680BDC046C2
:10059000B081E00F80B582B000AF254B5A69E023EF
:1005A000DB0013408022920093421ED080229200F2
:1005B000934206D8002B26D08022520093421FD0AF
:1005C00027E0C0229200934204D0E022D20093425E
:1005D0001CD01EE0FFF7D2FF0300122B02D9154BEF
:1005E0007B601FE0144B7B601CE0FFF7C7FF03003C
:1005F000122B02D9114B7B6014E0114B7B6011E090
:10060000104B7B600EE0104B7B600BE00F4B7B6070
:1006100008E000237B600E4A0E4B11001800FFF724
:1006200071FFC0467B681800BD4602B080BDC04661
:1006300000800C40804F120040420F0040B5640023
:10064000C0CF6A00C0D8A700809FD500406F40018E
:10065000DB0C00009814000090B583B000AFFC1CC8
:10066000114B180000F05CFA03002370FB1C1B7890
:10067000072B06D0092B09D1FFF7BAFE03007B60D8
:100680000DE0FFF787FF03007B6008E000237B603D
:10069000064A074B11001800FFF734FFC0467B687D
:1006A0001800BD4603B090BD06000E00150D0000F9
:1006B0009814000080B584B000AF78600023BB6060
:1006C0007B68394A934209D0384A934206D0384A67
:1006D000384B11001800FFF715FF00E0C0467B689B
:1006E000180000F01DFA0300FB607B682E4A93425D
:1006F00003D02E4A934206D00CE02F4B9B6A032274
:100700001340FB600DE02C4B9B6A9B0803221340B7
:10071000FB6006E0294A274B11001800FFF7F2FEA4
:10072000C046FB68012B05D014D3022B07D0032B46
:100730000AD02AE0FFF7CEFE0300BB602FE0FFF7F0
:10074000D7FE0300BB602AE0FFF736FE03005B081C
:10075000BB6024E00023BB607B68134A934203D054
:100760007B68124A934219D1134B9A6A7B680E49EF
:100770008B4201D1102300E01423DA40131E0DD068
:10078000FFF7AFFE0300BB6008E00023BB600C4A2C
:10079000084B11001800FFF7B5FE00E0C046BB682B
:1007A0001800BD4604B080BD02001E0003002000FA
:1007B000530F00009814000000800C40820F0000CE
:1007C000AD0F000080B582B000AF7860074B5B6D65
:1007D0000122134006D1C046044B1B6D7A681340BA
:1007E000FAD100E0C046BD4602B080BD00800C409A
:1007F00080B584B000AF78607B681B090F2213407E
:10080000BB60BB68043B092B5ED89A00354BD318FC
:100810001B689F46344B9B680F221340FB60FB68AC
:100820001800FFF793FE0300FB6056E02E4B5B6859
:100830000F221340FB60FB681800FFF787FE0300E0
:10084000FB604AE0284B5B681B0A01221340FB60F7
:10085000FB6801331800FFF779FE0300FB603CE002
:100860007B68224A93420BD11F4B9B6E0F22134091
:10087000FB60FB681800FFF769FE0300FB6008E0FF
:100880000123FB601A4A1B4B11001800FFF73AFEC8
:10089000C04622E07B68184A93420BD1124B1B6F73
:1008A00003221340FB60FB681800FFF74FFE0300B4
:1008B000FB6008E00123FB60104A0E4B110018009A
:1008C000FFF720FEC04608E00123FB600C4A094BFD
:1008D00011001800FFF716FEC046FB681800BD4661
:1008E00004B080BDAC14000000800C4080061200F3
:1008F000711200009814000090071A008A1200007C
:100900009112000080B586B000AF78600A00FB1C31
:100910001A7000233B617B681B0A0F2213400A2BCD
:100920001AD89A001B4BD3181B689F461A4B7B6141
:1009300019E01A4B7B6116E0194B7B6113E0194BF0
:100940007B6101233B610EE0174B7B6110233B6110
:1009500009E0164B7B6106E0154A164B11001800A2
:10096000FFF7D0FD12E07B681B0B1F221340FB60DA
:100970003B69002B03D03B691800FFF723FFFB1CEA
:100980001A78F9687B691800FFF7C2FDBD4606B00A
:1009900080BDC046D414000040800C4008800C404C
:1009A00044800C4058800C4060800C4078800C40A3
:1009B000F21300009814000090B585B000AF786085
:1009C0007A68F8239B03134080225203934200D19C
:1009D00079E080225203934213D8802292029342FC
:1009E0003BD080229202934202D8002B23D07EE09B
:1009F0008022D202934223D0E022120393425DD0A0
:100A000075E0F022520393422CD0F022520393421D
:100A100008D89022520393422BD0D0225203934203
:100A20003DD064E080229203934231D0F8229203B9
:100A300093424DD05BE0FFF7DBFC0300FB605FE01F
:100A4000FFF7D6FC0300FB60304B9B680F2213407E
:100A5000FA68DA401300FB6052E0FFF7ADFC0300D8
:100A6000FB604DE02A4B1800FFF724FE0300FB60FB
:100A700046E0274B1800FFF71DFE0300FB60234BE9
:100A80009B6E0F221340FA68DA401300FB6037E0D8
:100A9000204B1800FFF70EFE0300FB6030E01D4BFB
:100AA0001800FFF707FE0300FB60184B1B6F0322C3
:100AB0001340FA68DA401300FB6021E0FFF7CCFD39
:100AC0000300FB601CE0FFF765FD0300FB6017E01F
:100AD000FFF772FC04007B681800FFF789FE030033
:100AE0001900200000F03EFB0300FB6008E000233B
:100AF000FB60094A094B11001800FFF703FDC046CF
:100B0000FB681800BD4605B090BDC04600800C4093
:100B100002001E00030020002215000098140000AF
:100B200080B584B000AF78600F23FB1801221A70E3
:100B30007B680F221340BB60BB68022B30D002D809
:100B4000012B06D07DE0032B50D0062B00D173E0A3
:100B500077E0454BDA6AF0239B0113408022520173
:100B600093420DD080229201934204D08022120140
:100B700093420AD00EE00F23FB1802221A700EE0F7
:100B80000F23FB1803221A7009E00F23FB1804221D
:100B90001A7004E00F23FB1805221A70C0465BE0B0
:100BA000314B9B6A03221340022B08D0032B0BD03E
:100BB000012B0ED10F23FB1803221A7015E00F230F
:100BC000FB1802221A7010E00F23FB1806221A707D
:100BD0000BE0254B9A6A80235B02134004D00F235D
:100BE000FB180A221A7000E0C04635E01E4B9B6AD3
:100BF0000C221340082B08D00C2B0BD0042B0ED149
:100C00000F23FB1803221A7015E00F23FB18022292
:100C10001A7010E00F23FB1806221A700BE0124B1B
:100C20009A6A80235B03134004D00F23FB180A2227
:100C30001A7000E0C0460FE00F23FB1807221A705D
:100C40000AE00F23FB1800221A70084A084B110013
:100C50001800FFF757FCC0460F23FB181B7818003D
:100C6000BD4604B080BDC04600800C404219000063
:100C70009814000080B582B000AF02003960FB1DFF
:100C80001A70FB1D1B78002B1FD0FB1D1B78012B3E
:100C900019D0FB1D1B78022B13D0FB1D1B78032BD7
:100CA0000DD0FB1D1B78042B07D0FB1D1B78052BDB
:100CB00001D13F230AE0002308E0134B06E0134B69
:100CC00004E0134B02E0134B00E0134B3A6813416E
:100CD0000122134006D1F7239A00104B110018008F
:100CE000FFF710FC01223B689A4010000C49FB1DE5
:100CF0001A781300DB009B189B00CB181433186084
:100D0000C046BD4602B080BDF0FF0000FF010000FC
:100D1000FFFF0000F87900007FF7000000150000D9
:100D20000060004080B582B000AF02003960FB1D5A
:100D30001A70FB1D1B78002B1FD0FB1D1B78012B8D
:100D400019D0FB1D1B78022B13D0FB1D1B78032B26
:100D50000DD0FB1D1B78042B07D0FB1D1B78052B2A
:100D600001D13F230AE0002308E0134B06E0134BB8
:100D700004E0134B02E0134B00E0134B3A681341BD
:100D80000122134005D1114A114B11001800FFF741
:100D9000B9FB01223B689A4010000E49FB1D1A78EE
:100DA0001300DB009B189B00CB1810331860C04663
:100DB000BD4602B080BDC046F0FF0000FF0100004C
:100DC000FFFF0000F87900007FF700000B0400002F
:100DD000001500000060004090B585B000AFB9601C
:100DE00011007B600F243B19021C1A700E23FB18A4
:100DF0000A1C1A703B191B78002B24D00F23FB18F8
:100E00001B78012B1DD00F23FB181B78022B16D04B
:100E10000F23FB181B78032B0FD00F23FB181B7815
:100E2000042B08D00F23FB181B78052B01D13F237F
:100E30000AE0002308E0504B06E0504B04E0504B22
:100E400002E0504B00E0504BBA68134101221340BE
:100E500007D11C23FF331A004C4B11001800FFF779
:100E600051FB0E23FB181B78002B13D07B68002B43
:100E700008D0BA680F23FB181B7811001800FFF781
:100E800051FF07E0BA680F23FB181B781100180008
:100E9000FFF7F0FEBB68072B25D83D490F243B190F
:100EA0001A781300DB009B189B00CB1804331B68D7
:100EB000BA6892000F2191400A00D24313400E22DB
:100EC000BA181178BA68920091400A0011003048AF
:100ED0003A19127819431300DB009B189B00C318C2
:100EE000043319602AE02A490F243B191A781300A9
:100EF000DB009B189B00CB1808331B68BA68254998
:100F00008C46624492000F2191400A00D243134064
:100F10000E22BA181178BA681E48844662449200BC
:100F200091400A0011001A483A1912781943130027
:100F3000DB009B189B00C318083319600E23FB18B5
:100F40001B78002B13D17B68002B08D0BA680F23C5
:100F5000FB181B7811001800FFF7E4FE07E0BA68E1
:100F60000F23FB181B7811001800FFF783FEC04603
:100F7000BD4605B090BDC046F0FF0000FF01000077
:100F8000FFFF0000F87900007FF7000078150000EF
:100F900000600040F8FFFF3F90B583B000AF020053
:100FA0003960FB1D1A70FB1D1B787F2B28D82F4A38
:100FB000FB1D1B785BB29B08C0339B009B58FA1D3E
:100FC0001278110003220A40D200FF2191400A004A
:100FD000D2431A4011003B689B01FF221A40FB1DBF
:100FE0001B78180003230340DB009A401F48FB1DB9
:100FF0001B785BB29B080A43C0339B001A5031E058
:101000001B4AFB1D1B7819000F230B40083B9B0854
:1010100006339B00D31804331B68FA1D12781100A5
:1010200003220A40D200FF2191400A00D2431A4015
:1010300011003B689B01FF221A40FB1D1B78180022
:1010400003230340DB009A400948FB1D1B781C006A
:101050000F232340083B9B080A4306339B00C31819
:1010600004331A60C046BD4603B090BD00E100E005
:1010700000ED00E080B582B000AF78607B68013B96
:101080000C4A934201D9012310E00B4B7A68013AD4
:101090005A6001235B4203211800FFF77DFF064BD6
:1010A00000229A60044B07221A6000231800BD46F4
:1010B00002B080BDFFFFFF0010E000E080B500AF90
:1010C000024B01221A64C046BD4680BD00000C40A0
:1010D00080B500AF034B1B685A1C024B1A60C04618
:1010E000BD4680BD9000002080B584B000AF786020
:1010F000074B1B68FB60C046054B1A68FB68D31A98
:101100007A689A42F8D8C046BD4604B080BDC04651
:101110009000002080B582B000AF00237B60FFF715
:10112000CDFF0F4B1800FFF747FC0200FA23990090
:10113000100000F017F803001800FFF79BFF031ED4
:1011400000D0FEE7FFF7B4F87B6801337B607B6873
:101150001800FFF7DDF8FA20FFF7C6FFF4E7C046F6
:1011600070000200002243088B4274D303098B42B3
:101170005FD3030A8B4244D3030B8B4228D3030C67
:101180008B420DD3FF22090212BA030C8B4202D309
:101190001212090265D0030B8B4219D300E0090A31
:1011A000C30B8B4201D3CB03C01A5241830B8B423A
:1011B00001D38B03C01A5241430B8B4201D34B0323
:1011C000C01A5241030B8B4201D30B03C01A524188
:1011D000C30A8B4201D3CB02C01A5241830A8B420D
:1011E00001D38B02C01A5241430A8B4201D34B02F6
:1011F000C01A5241030A8B4201D30B02C01A52415A
:10120000CDD2C3098B4201D3CB01C01A524183090D
:101210008B4201D38B01C01A524143098B4201D347
:101220004B01C01A524103098B4201D30B01C01A72
:101230005241C3088B4201D3CB00C01A52418308EC
:101240008B4201D38B00C01A524143088B4201D319
:101250004B00C01A5241411A00D201465241104679
:101260007047FFE701B5002000F006F802BDC04658
:101270000029F7D076E770477047C046084B10B595
:101280000400002B02D0002100E000BF054B1868CD
:10129000836A002B00D09847200000F031F8C04648
:1012A000000000008C15000070B500260C4D0D4CA0
:1012B000641BA410A64209D1002600F023F80A4DB1
:1012C0000A4C641BA410A64205D170BDB300EB58B4
:1012D00098470136EEE7B300EB5898470136F2E73E
:1012E0006C0000206C0000206C00002070000020CA
:1012F00003001218934200D1704719700133F9E7C7
:10130000FEE7C046F8B5C046F8BC08BC9E4670472C
:10131000F8B5C046F8BC08BC9E4670472F417070B7
:101320006C69636174696F6E732F53696D706C695A
:10133000636974792053747564696F2E6170702FBE
:10134000436F6E74656E74732F45636C697073655B
:101350002F646576656C6F7065722F73646B732F85
:101360006765636B6F5F73646B5F73756974652F1B
:1013700076322E372F2F706C6174666F726D2F6509
:101380006D6C69622F696E632F656D5F6770696F41
:101390002E680000020000000A00000002000000A9
:1013A0000B0000002F4170706C69636174696F6E8F
:1013B000732F53696D706C69636974792053747508
:1013C00064696F2E6170702F436F6E74656E7473F5
:1013D0002F45636C697073652F646576656C6F70FB
:1013E00065722F73646B732F6765636B6F5F7364D4
:1013F0006B5F73756974652F76322E372F2F706C83
:101400006174666F726D2F656D6C69622F696E63B2
:101410002F656D5F636F6D6D6F6E2E68000000004D
:101420002F4170706C69636174696F6E732F5369BB
:101430006D706C69636974792053747564696F2E7B
:101440006170702F436F6E74656E74732F45636C9B
:10145000697073652F646576656C6F7065722F7344
:10146000646B732F6765636B6F5F73646B5F73751A
:101470006974652F76322E372F2F706C6174666F0A
:10148000726D2F656D6C69622F696E632F656D5F7C
:10149000636D752E680000002E2E2F656D6C6962DD
:1014A0002F656D5F636D752E6300000014080000EA
:1014B000C8080000C80800002C08000060080000F0
:1014C00094080000C8080000C8080000C808000010
:1014D00044080000580900003209000038090000E3
:1014E0002C09000058090000580900003E090000BE
:1014F000480900005809000058090000520900007E
:101500002F4170706C69636174696F6E732F5369DA
:101510006D706C69636974792053747564696F2E9A
:101520006170702F436F6E74656E74732F45636CBA
:10153000697073652F646576656C6F7065722F7363
:10154000646B732F6765636B6F5F73646B5F737539
:101550006974652F76322E372F2F706C6174666F29
:10156000726D2F656D6C69622F696E632F656D5F9B
:101570006770696F2E6800002E2E2F656D6C696292
:101580002F656D5F6770696F2E6300000C0000208F
:041590000000000057
:0815940040EBFF7F01000000A5
:10159C0000366E0100800000809FD5000000000026
:1015AC00000000000000000000000000000000002F
:1015BC00000000000000000000000000000000001F
:1015CC00000000000000000000000000000000000F
:1015DC0000000000000000000000000000000000FF
:1015EC0000000000000000000000000000000000EF
:1015FC00000000000000000000000000B50000002A
:04160C008D0000004D
:04000003000003896D
:00000001FF
